{
  "contractName": "Elections",
  "abi": [
    {
      "inputs": [],
      "payable": false,
      "stateMutability": "nonpayable",
      "type": "constructor"
    },
    {
      "constant": false,
      "inputs": [
        {
          "name": "UNIs",
          "type": "bytes32[]"
        }
      ],
      "name": "addElection",
      "outputs": [],
      "payable": false,
      "stateMutability": "nonpayable",
      "type": "function"
    },
    {
      "constant": false,
      "inputs": [],
      "name": "startElections",
      "outputs": [],
      "payable": false,
      "stateMutability": "nonpayable",
      "type": "function"
    },
    {
      "constant": false,
      "inputs": [
        {
          "name": "voterEncryptedUNI",
          "type": "bytes32"
        },
        {
          "name": "candidates",
          "type": "bytes32[]"
        }
      ],
      "name": "vote",
      "outputs": [],
      "payable": false,
      "stateMutability": "nonpayable",
      "type": "function"
    },
    {
      "constant": false,
      "inputs": [],
      "name": "endElections",
      "outputs": [],
      "payable": false,
      "stateMutability": "nonpayable",
      "type": "function"
    },
    {
      "constant": false,
      "inputs": [
        {
          "name": "_privateKey",
          "type": "bytes32"
        }
      ],
      "name": "releaseElectionsResults",
      "outputs": [],
      "payable": false,
      "stateMutability": "nonpayable",
      "type": "function"
    },
    {
      "constant": true,
      "inputs": [
        {
          "name": "voterEncryptedUNI",
          "type": "bytes32"
        },
        {
          "name": "index",
          "type": "uint256"
        }
      ],
      "name": "getBallot",
      "outputs": [
        {
          "name": "",
          "type": "bytes32"
        }
      ],
      "payable": false,
      "stateMutability": "view",
      "type": "function"
    },
    {
      "constant": true,
      "inputs": [
        {
          "name": "electionId",
          "type": "uint256"
        },
        {
          "name": "candidate",
          "type": "bytes32"
        }
      ],
      "name": "getVotesCount",
      "outputs": [
        {
          "name": "",
          "type": "uint256"
        }
      ],
      "payable": false,
      "stateMutability": "view",
      "type": "function"
    }
  ],
  "bytecode": "0x608060405234801561001057600080fd5b50336000806101000a81548173ffffffffffffffffffffffffffffffffffffffff021916908373ffffffffffffffffffffffffffffffffffffffff1602179055506000600181905550610844806100686000396000f300608060405260043610610083576000357c0100000000000000000000000000000000000000000000000000000000900463ffffffff16806301929a8b1461008857806328e6daa0146100d75780635905491c146101085780636cd0c1e81461011f57806382a53fbc1461017657806399eeafab146101ea578063bede50ac14610201575b600080fd5b34801561009457600080fd5b506100c1600480360381019080803590602001909291908035600019169060200190929190505050610267565b6040518082815260200191505060405180910390f35b3480156100e357600080fd5b5061010660048036038101908080356000191690602001909291905050506102a4565b005b34801561011457600080fd5b5061011d610320565b005b34801561012b57600080fd5b50610158600480360381019080803560001916906020019092919080359060200190929190505050610397565b60405180826000191660001916815260200191505060405180910390f35b34801561018257600080fd5b506101e860048036038101908080356000191690602001909291908035906020019082018035906020019080806020026020016040519081016040528093929190818152602001838360200280828437820191505050505050919291929050505061040e565b005b3480156101f657600080fd5b506101ff61060c565b005b34801561020d57600080fd5b5061026560048036038101908080359060200190820180359060200190808060200260200160405190810160405280939291908181526020018383602002808284378201915050505050509192919290505050610683565b005b6000600460008481526020019081526020016000206001016000836000191660001916815260200190815260200160002060010154905092915050565b6000809054906101000a900473ffffffffffffffffffffffffffffffffffffffff1673ffffffffffffffffffffffffffffffffffffffff163373ffffffffffffffffffffffffffffffffffffffff161415156102ff57600080fd5b60026001548114151561031157600080fd5b81600281600019169055505050565b6000809054906101000a900473ffffffffffffffffffffffffffffffffffffffff1673ffffffffffffffffffffffffffffffffffffffff163373ffffffffffffffffffffffffffffffffffffffff1614151561037b57600080fd5b600180548114151561038c57600080fd5b600260018190555050565b600060056000846000191660001916815260200190815260200160002060000160009054906101000a900460ff1615156103d057600080fd5b600560008460001916600019168152602001908152602001600020600101828154811015156103fb57fe5b9060005260206000200154905092915050565b60008060009054906101000a900473ffffffffffffffffffffffffffffffffffffffff1673ffffffffffffffffffffffffffffffffffffffff163373ffffffffffffffffffffffffffffffffffffffff1614151561046b57600080fd5b600180548114151561047c57600080fd5b600354835114151561048d57600080fd5b60056000856000191660001916815260200190815260200160002060000160009054906101000a900460ff161515156104c557600080fd5b600091505b60035482101561059c5760046000838152602001908152602001600020600101600084848151811015156104fa57fe5b906020019060200201516000191660001916815260200190815260200160002060000160009054906101000a900460ff16151561053657600080fd5b600460008381526020019081526020016000206001016000848481518110151561055c57fe5b90602001906020020151600019166000191681526020019081526020016000206001016000815480929190600101919050555081806001019250506104ca565b8260056000866000191660001916815260200190815260200160002060010190805190602001906105ce9291906107a0565b50600160056000866000191660001916815260200190815260200160002060000160006101000a81548160ff02191690831515021790555050505050565b6000809054906101000a900473ffffffffffffffffffffffffffffffffffffffff1673ffffffffffffffffffffffffffffffffffffffff163373ffffffffffffffffffffffffffffffffffffffff1614151561066757600080fd5b60006001548114151561067957600080fd5b6001808190555050565b6000806000809054906101000a900473ffffffffffffffffffffffffffffffffffffffff1673ffffffffffffffffffffffffffffffffffffffff163373ffffffffffffffffffffffffffffffffffffffff161415156106e157600080fd5b6000600154811415156106f357600080fd5b60046000600360008154600101919050819055815260200190815260200160002092508383600001908051906020019061072e9291906107a0565b50600091505b835182101561079a576001836001016000868581518110151561075357fe5b906020019060200201516000191660001916815260200190815260200160002060000160006101000a81548160ff0219169083151502179055508180600101925050610734565b50505050565b8280548282559060005260206000209081019282156107e2579160200282015b828111156107e15782518290600019169055916020019190600101906107c0565b5b5090506107ef91906107f3565b5090565b61081591905b808211156108115760008160009055506001016107f9565b5090565b905600a165627a7a7230582044a674b1d520f3bf03d162a7d2b2f6d08b507b8781a03e4f2d050e4ec28a5efc0029",
  "source": "pragma solidity ^0.4.23;\r\n\r\ncontract Elections {\r\n    address manager;\r\n    uint stage;\r\n    bytes32 privateKey;\r\n\r\n    uint electionsCount;\r\n    mapping (uint => Election) elections;\r\n    mapping (bytes32 => Ballot) ballots;\r\n\r\n    modifier onlyManager () {\r\n        require(msg.sender == manager);\r\n        _;\r\n    }\r\n\r\n    modifier onlyStage (uint enforcedStage) {\r\n        require(enforcedStage == stage);\r\n        _;\r\n    }\r\n\r\n    struct Election {\r\n        bytes32[] UNIs;\r\n        mapping (bytes32 => Candidate) candidates;\r\n    }\r\n\r\n    struct Candidate {\r\n        bool exists;\r\n        uint votes;\r\n    }\r\n\r\n    struct Ballot {\r\n        bool exists;\r\n        bytes32[] candidates;\r\n    }\r\n\r\n    function Elections ()  {\r\n        manager = msg.sender;\r\n        stage = 0;\r\n    }\r\n\r\n    function addElection (bytes32[] UNIs) public onlyManager() onlyStage(0) {\r\n        Election storage election = elections[++electionsCount];\r\n        election.UNIs = UNIs;\r\n        for (uint i = 0; i < UNIs.length; i++) {\r\n            election.candidates[UNIs[i]].exists = true;\r\n        }\r\n    }\r\n\r\n    function startElections () public onlyManager() onlyStage(0) {\r\n        stage = 1;\r\n    }\r\n\r\n    function vote (bytes32 voterEncryptedUNI, bytes32[] candidates) public onlyManager() onlyStage(1) {\r\n        require(candidates.length == electionsCount);\r\n        require(!ballots[voterEncryptedUNI].exists);\r\n\r\n        for (uint i = 0; i < electionsCount; i++) {\r\n            require(elections[i].candidates[candidates[i]].exists);\r\n            elections[i].candidates[candidates[i]].votes++;\r\n        }\r\n\r\n        ballots[voterEncryptedUNI].candidates = candidates;\r\n        ballots[voterEncryptedUNI].exists = true;\r\n    }\r\n\r\n    function endElections () public onlyManager() onlyStage(1) {\r\n        stage = 2;\r\n    }\r\n\r\n    function releaseElectionsResults (bytes32 _privateKey) public onlyManager() onlyStage(2) {\r\n        privateKey = _privateKey;\r\n    }\r\n\r\n    function getBallot (bytes32 voterEncryptedUNI, uint index) public view returns (bytes32) {\r\n        require(ballots[voterEncryptedUNI].exists);\r\n        return ballots[voterEncryptedUNI].candidates[index];\r\n    }\r\n\r\n    function getVotesCount (uint electionId, bytes32 candidate) public view returns (uint) {\r\n        return elections[electionId].candidates[candidate].votes;\r\n    }\r\n\r\n}\r\n",
  "sourcePath": "C:\\programming\\voting-contract\\contracts\\Election.sol",
  "compiler": {
    "name": "solc",
    "version": "0.4.24+commit.e67f0147.Emscripten.clang"
  },
  "schemaVersion": "2.0.1",
  "updatedAt": "2018-12-09T18:40:53.183Z"
}